SQL Server parse and compile time: 
   CPU time = 0 ms, elapsed time = 0 ms.

 SQL Server Execution Times:
   CPU time = 0 ms,  elapsed time = 0 ms.
SQL Server parse and compile time: 
   CPU time = 32 ms, elapsed time = 68 ms.
Codigo      Nombre                    CodigoCanton PoblacionHombres PoblacionMujeres ViviendasOcupadas ViviendasDesocupadas ViviendasColectivas Geom
----------- ------------------------- ------------ ---------------- ---------------- ----------------- -------------------- ------------------- ----------------------------------------------------------------------------------------------------------------------------------------------------------------------------------------------------------------------------------------------------------------
10102       MERCED                    101          5921             6344             3670              242                  9                   0x0000000001045B000000000090B642FD1D4100009A69D5C230410000707FD6FD1D41000048E573C530410000B07A2FFE1D4100001C78E9C530410000D06655FE1D4100006CA813C630410000C02267FD1D4100009ED009C630410000306FE7FC1D410000EE2412C6304100001085F2FB1D410000E86420C630410000F0D46A
10103       HOSPITAL                  101          9375             9898             5174              403                  13                  0x0000000001047F000000000030D4E8F31D41000068A271BB30410000301E59F41D41000090027EBB30410000A0BA07F51D41000004429DBB30410000601AA7F51D4100006C36BFBB3041000070C2EAF51D410000CC80E6BB3041000070397DF51D410000BC1E17BC30410000209141F51D41000020BA2BBC3041000090C17B
10104       CATEDRAL                  101          6107             6831             4385              593                  4                   0x0000000001045200000000005000ED081E410000ACA986BA3041000090A159091E41000070A1A8BA304100001077BB091E410000404EBFBA30410000E030260A1E410000345FBCBA304100000012F00A1E41000060EAA4BA304100008042550B1E410000F01799BA30410000000FF90B1E4100008828A9BA3041000070D95E
10109       PAVAS                     101          33887            37481            18815             913                  8                   0x000000000104D5000000000020BCF4B21D4100007C7067C330410000607A83B31D410000F47E69C330410000401744B41D4100001C726BC33041000080355CB51D4100005CFB70C330410000C04F46B61D410000CC9F71C330410000E07563B71D41000084BC7EC33041000000363EB81D410000D47984C33041000000DD6F
10301       DESAMPARADOS              103          16019            17824            9974              398                  7                   0x000000000104BF000000000020C1B40F1E410000A8CB64AD30410000702A2B101E4100007CC28EAD30410000000FAC101E410000BC84B4AD30410000B066EF101E410000847FCCAD30410000508D33111E410000D479F2AD30410000E0BFD5111E410000386FEAAD3041000040B94A121E4100007C83E7AD30410000706E15
10305       SAN ANTONIO               103          4351             4833             2819              144                  3                   0x000000000104C9000000000000CA6D4A1E4100006E079DB130410000A05F1E4B1E410000D0FAB5B13041000040B9A04B1E4100003E59D1B13041000080F2864C1E410000FEDF0CB230410000D037334D1E410000208416B2304100000007AF4E1E410000D8092FB23041000030C508501E4100005AD236B230410000D0B66E
10401       SANTIAGO                  104          5640             5872             3442              236                  4                   0x0000000001048D0200000000A00ACB851C41000040C5487F30410000006E4F861C410000A03C507F30410000E0E0FB861C410000E030687F3041000060540E881C41000080EA837F30410000805C7E881C410000004B8F7F30410000009667891C4100002038907F30410000608FE1891C41000070988D7F30410000608A79
10501       SAN MARCOS                105          4903             5090             2878              544                  1                   0x000000000104B20100000000409071891E41000040FE813B3041000000FF318B1E41000020C5BF3B3041000080C83F8C1E41000060970E3C30410000407DD78D1E410000E0F84F3C304100000048438F1E410000C0E12D3C30410000404AD8901E4100002094053C3041000040BE59921E4100007030CF3B3041000040C8FD
10801       GUADALUPE                 108          9755             11258            6563              436                  5                   0x000000000104920000000000704AC1161E410000ECBDF6C430410000704DA0171E410000C04AFFC43041000090DDF1171E4100002C2B4CC530410000305B63181E410000EC8588C530410000D0D94C191E41000024428DC530410000F06EDD191E41000074ED68C53041000020370E1A1E410000941B36C53041000000D608
10903       POZOS                     109          7097             7794             4165              506                  6                   0x000000000104B50000000000202F425B1D41000008AAA7C2304100004008745D1D41000008B4CDC230410000402BF05F1D410000685AC2C230410000C01AE3611D410000A051BFC23041000040FF54641D410000A828B5C230410000609F4C681D4100000019CFC2304100000050FA6A1D410000B8EBD1C230410000A06A70
11201       SAN IGNACIO               112          4455             4561             2559              186                  1                   0x0000000001045E0200000000A0DD7D691D41000060B3347E30410000C0FA1F6A1D410000B044377E3041000020FBDA6A1D41000038D03D7E30410000A065AE6B1D410000D0C14E7E3041000040AA636C1D410000981D597E30410000A097F96C1D41000028DF6A7E3041000020A9576D1D41000058A47E7E30410000E017BB
11301       SAN JUAN                  113          10011            11733            7006              465                  1                   0x000000000104810000000000C01E2EFB1D410000C05E79C930410000C0C79DFB1D4100002C8AA2C930410000C0B00DFC1D41000094B1CBC93041000000BA89FC1D410000F874D7C930410000801FEAFC1D41000084F1FCC93041000030BA6CFD1D410000083419CA30410000A0C9D4FD1D4100009C442ACA30410000B0CB16
11901       SAN ISIDRO DE EL GENERAL  119          21688            24329            13684             1518                 6                   0x000000000104B8020000000040388F302041000080251C1D2F410000C083B83120410000C05C211D2F41000000F87E322041000000C12A1D2F4100008066913320410000C0D6341D2F410000409A7D34204100004027461D2F41000000CC7B35204100008042551D2F410000C0D66F362041000080CA4A1D2F410000408B68
20101       ALAJUELA                  201          20439            22531            13251             886                  6                   0x000000000104B40100000000E01528161D410000D81008E03041000020D52D161D410000C8F725E030410000E0B667161D41000078BE65E03041000060D793161D410000D0A285E03041000020FBF0171D41000098EF90E030410000E0BA0E1A1D410000B8E39CE030410000405F4D1B1D410000801EA8E030410000C02931
20110       DESAMPARADOS              201          12794            13314            7314              436                  2                   0x0000000001043E0100000000E07E2D301D410000502869E030410000606B9C301D410000A88477E030410000C08F0B311D410000302D7EE03041000020B58E311D410000584086E030410000209385321D4100004833A8E030410000A0EC02331D4100006042C3E030410000C04262331D410000906BDAE030410000C0FFF4
20201       SAN RAMON                 202          3928             4623             2881              181                  0                   0x0000000001040A0000000000A82B26681B410000A8CCDE0231410000A03ADE691B4100008EF41C0631410000C0165B6A1B4100007AB1F40631410000384805671B410000DC1F19073141000008F2D5601B410000EA684B0731410000809DC85B1B4100003E6F830731410000189A1F581B41000038C3920731410000B820AC
20301       GRECIA                    203          7244             7954             4725              296                  0                   0x000000000104E00000000000A088855E1C410000C8F60AF830410000A0E9555F1C41000020E90FF8304100000035D15F1C410000D8141DF83041000020DE6A601C4100009CBE28F830410000C04865611C410000049237F830410000C0885E621C410000B0353CF830410000A0DA46631C410000BC0A33F83041000060E9D6
20501       ATENAS                    205          3610             3788             2166              206                  1                   0x0000000001047D0100000000A0D24BFD1B410000006278CE304100006052E4FD1B41000084A39ACE3041000060FA95FE1B410000E817A6CE30410000A0F423FF1B410000E076A3CE30410000E040E4FF1B410000E81E94CE3041000020D595001C410000B45B8CCE30410000806E0F011C410000047088CE3041000020CCBB
20601       NARANJO                   206          7651             8388             4471              369                  3                   0x00000000010484020000000080B65F1E1C410000783930FD30410000C0399F1D1C41000048948CFD30410000402DF11D1C41000060F01BFE3041000080EC211E1C410000003B97FE304100008092701E1C410000007F38FF30410000C03FC51E1C410000284484FF304100004066521E1C4100006816C6FF3041000040CAFC
20706       ESQUIPULAS                207          3211             3377             1741              82                   0                   0x000000000104930000000000A0F5ECBC1B410000106F1CF130410000109466BD1B41000040EB1CF130410000E058E1BD1B41000040AB23F130410000D06557BE1B410000683F32F130410000F0AF7FBE1B41000018F05BF130410000D08F6EBE1B410000ACA47AF13041000010187DBE1B4100000C07A2F13041000060F6AD
20801       SAN PEDRO                 208          3700             3854             2144              175                  0                   0x000000000104E1010000000060A580BC1C410000F87CB3F43041000060819BBD1C410000C0E9D3F4304100002076A4BE1C41000038730BF53041000080046EBF1C410000604C5AF530410000C0AC2CC01C41000060EEA2F5304100006034C1C01C410000589A51F53041000080C68EC11C41000058760BF5304100006090F5
20901       OROTINA                   209          4622             4959             2894              440                  5                   0x000000000104E100000000000069BCF01A410000B05296A830410000E08670F21A4100001853BDA830410000A08BD8F21A410000A0AE25A930410000209E82F01A410000681D8EA930410000208522F01A41000010BC35AA3041000000CFA6F11A410000E8D5A8AA3041000080907CF41A4100004024D9AA30410000E0F96A
21001       QUESADA                   210          20343            21871            12316             911                  7                   0x000000000104B9020000000080EFD0FA1B41000000DA1C4C31410000006CFCFB1B410000202A1D4C3141000080DC1DFD1B410000C07A304C31410000C04CF8FD1B410000208C424C31410000C07B5DFE1B41000040E9514C3141000000AEE4FF1B4100002003684C31410000805E3F001C410000802C974C31410000403D5B
21006       PITAL                     210          8874             8451             4532              473                  3                   0x0000000001046B0300000000002638C71C410000C082E2923141000080C23BCA1C410000C09EE99231410000002BCAC81C410000407E45933141000000EE25C71C41000000B9B9933141000000B9E1C51C41000000E6FA9331410000004EC2C61C410000C024889431410000008C63C81C41000040B7E494314100000083DC
21101       ZARCERO                   211          1920             2084             1168              71                   1                   0x000000000104E50100000000E0B929D61B410000D0BB52293141000060CC03D71B410000445D672931410000E0BF91D71B410000B4D77B2931410000000971D81B410000F094872931410000C00328D91B41000094B8A32931410000607292D91B4100006419B3293141000060BAF7D91B410000A42EBC293141000080EF71
21201       SARCHI NORTE              212          3460             3680             2046              176                  1                   0x00000000010440030000000040D8D1201C410000009D6EFB30410000C0FC43211C410000F0C893FB304100000082A8211C410000C03DB9FB304100004009B0211C4100000008FEFB30410000408DD2211C410000206D21FC3041000000A8F8211C41000020EA3BFC30410000806810221C410000009C5BFC30410000C0A327
30101       ORIENTAL                  301          5897             6330             3642              277                  8                   0x0000000001043C0000000000989B58141F4100009E5E699F30410000900772141F410000C871CC9F30410000C0A2B8141F410000488221A03041000080A9C5141F4100005E4F62A030410000706CA0141F4100000E389EA03041000068F947141F41000006D4E1A03041000028FD82141F410000003621A130410000105ABF
30201       PARAISO                   302          10138            10463            5478              392                  2                   0x00000000010475030000000060A230691F41000068BB278C3041000000DFC3691F4100002819298C30410000E02D2E6A1F41000040AD398C304100004044616A1F41000000594F8C304100002072476A1F41000070F5778C30410000C0D3236A1F410000F042958C304100004073146A1F4100001827B18C30410000806C28
30301       TRES RIOS                 303          4379             4921             2620              108                  1                   0x000000000104350000000000004A718C1E4100003082E0B33041000040FF538D1E4100003AD517B430410000E022C18E1E410000FC8C07B430410000A000E78F1E410000CADDEFB33041000060EA86901E410000B4B91AB43041000040506D911E410000E4F443B430410000004216931E410000705A7DB430410000805D55
30401       JUAN VINAS                304          3279             3273             1804              224                  11                  0x0000000001040D0100000000305A73392041000010BEDAA03041000070F1233A20410000A0570CA13041000070FD3C3B20410000B0622FA13041000080016C3C2041000070E97DA130410000205EBD3C20410000F0F57BA13041000040336F3820410000704E47A430410000A096BE372041000000E67CA430410000103134
30501       TURRIALBA                 305          12973            13856            8239              560                  3                   0x000000000104AB01000000006057CF632041000030D1349D30410000E0D5A96420410000A0AD3C9D3041000020B3666520410000F090789D30410000C04252662041000020269F9D30410000A0BD4D6720410000F019A29D3041000040A8E2692041000050539C9D3041000020D0C16B20410000A0C1C09D30410000209E9B
30601       PACAYAS                   306          2809             2819             1376              150                  1                   0x0000000001042D010000000040E770BA1F410000D0DDD2B030410000A0C2E4BA1F41000050D327B1304100002049CDBB1F410000300D6DB130410000407E7BBD1F41000090A1A7B130410000803B9CBD1F410000B081DFB130410000A0F9FFBD1F41000020C919B230410000E0B3AFBE1F410000408752B230410000A0FCC4
40101       HEREDIA                   401          8799             10339            6209              467                  7                   0x000000000104120000000000284507C61D4100001E0D0DDB30410000086100CB1D410000E04E45DB3041000048E8D1CA1D410000C81B3BDC3041000078C59DCA1D410000944C45DD30410000286FA3CA1D4100003894E4DD30410000103E9BCA1D4100006C5D6ADE30410000B01097CA1D410000C4C3B7DE30410000B005E7
40301       SANTO DOMINGO             403          2186             2544             1533              75                   2                   0x0000000001040B00000000004C823CED1D4100009EEA7BD43041000050823CED1D4100009EEA7BD43041000014E61BEE1D4100007A5092D530410000C8B24FEF1D4100006AA3A5D530410000703A4EF01D4100001C6945D830410000ECA36FE21D4100005E048FD8304100008C28F5E11D410000CC00B1D630410000304641
40701       SAN ANTONIO               407          5043             5150             2777              113                  1                   0x0000000001043E0000000000E05D2D2E1D410000D45684D130410000A0ED4E301D41000084B1BED130410000A02786311D4100007C37FDD130410000E0B245331D41000004644FD23041000090D161341D410000EC1AB0D230410000E05B22361D410000E0293ED33041000070C867371D41000078968ED330410000E0E1FA
50101       LIBERIA                   501          26100            27281            14105             1500                 14                  0x000000000104D509000000000070BE9C14410000C06483953141000000276C9F14410000C08BC89531410000806902A114410000409BED953141000080ABBCA2144100004038109631410000809F13A51441000040DD5796314100008031F8A514410000402079963141000000D9B3A61441000080AD929631410000008B63
50201       NICOYA                    502          11988            12764            7260              932                  1                   0x000000000104D2070000000000F7D009144100006039D5D730410000805A800A1441000000E6F0D730410000000DE00A14410000E049FFD730410000005C890B14410000A0DB28D83041000080C1000C14410000C0D74BD83041000080269C0C14410000801D6BD83041000080AA460D1441000080FE87D83041000000C2AA
50301       SANTA CRUZ                503          10483            11226            6173              838                  7                   0x0000000001047C040000000080741BD313410000805529FD30410000007B5AD41341000000F939FD304100000015F2D41341000000724AFD3041000000BAB2D51341000040E963FD30410000809E45D613410000402F81FD3041000000D0E2D6134100004014D0FD304100008066D3D613410000C0650EFE3041000000E4F1
50501       FILADELFIA                505          3988             3965             2077              175                  1                   0x000000000104EB03000000000010F26B1441000040A69B7D31410000005C406E1441000040689E7D31410000808BEB701441000060C0DC7D3141000000A5E5721441000060F52F7E31410000002ACE731441000020CEA07E3141000000340D7414410000B03AE47E3141000080D541741441000060EB1F7F31410000004C72
50601       CANAS                     506          10087            10724            5660              425                  4                   0x0000000001048D020000000080223FF616410000A02B0D783141000080A38DF71641000040A060783141000000528EF71641000040B507793141000000A98EF716410000C03F5B793141000080C0D2FA16410000401E027A314100008044A90217410000608A797B3141000080ACEC0517410000C053797B3141000080DA89
50701       LAS JUNTAS                507          4479             4537             2685              403                  3                   0x000000000104C305000000000030B05B18410000C054FB0F3141000080471D5C1841000000675310314100000093005B18410000A01062103141000000873F5A18410000C084781031410000807BA15918410000A02A8F103141000080D01C591841000000CBA510314100008095325818410000E009CE103141000000A28A
60101       PUNTARENAS                601          4027             4308             2726              554                  2                   0x0000000001045309000000000062B3AE17410000105722DE3041000000D234AF1741000060BA2DDE30410000009E88AF17410000F0BC40DE3041000000D7D4AF17410000A0435DDE3041000000D911B01741000070997DDE30410000004B6DB017410000401F9ADE304100000029E7B017410000E0EDB0DE30410000000661
60103       CHOMES                    601          2865             2657             1608              591                  0                   0x0000000001043A07000000004011F9F81741000020838FFD30410000C05053F91741000080A496FD304100008061A0F9174100002047A3FD304100000074EDF9174100002090B1FD30410000005538FA17410000A00CC2FD3041000000FE75FA174100004023CEFD3041000040A9B3FA17410000206DDCFD3041000000B6F5
60105       PAQUERA                   601          3448             3237             2006              761                  0                   0x000000000104E81A00000000002D82561841000080D731C330410000005FB65618410000802D36C3304100000084D05618410000006445C3304100000042D95618410000006F52C33041000000EAC75618410000807B5FC330410000005482561841000040265BC33041000000D256561841000040A354C33041000000B13C
60201       ESPIRITU SANTO            602          7614             8071             4602              511                  0                   0x000000000104C7010000000080E954A819410000007C7AD03041000000AB98A81941000080D180D0304100008054FEA81941000020BA91D030410000802842A919410000401CABD030410000805E9FA9194100003041C0D03041000000C4C9A919410000702DD1D030410000406AB0A91941000010E2DDD03041000000CD4A
60301       BUENOS AIRES              603          10330            10733            5683              791                  3                   0x000000000104A70300000000402271E921410000002A51642E410000C0F104EA2141000080BB9B642E41000000D855EA21410000005A70652E410000400F80EA2141000000A712662E41000040A18DEB21410000000A7D662E410000007E7BEC2141000000B84C662E410000800213EE21410000006D4A652E41000000A4AC
60502       PALMAR                    605          4967             4849             2844              369                  1                   0x000000000104180700000000007D56FC2041000040834A382E410000808599FC20410000809D4E382E4100008030D4FC20410000801B5B382E41000000EDF9FC20410000003274382E41000000A534FD204100008094AA382E41000080BE77FD2041000080F4E0382E4100008010AAFD20410000009806392E410000808CE0
60601       QUEPOS                    606          10186            9703             5970              1070                 5                   0x0000000001040F160000000000A2D0E41C410000A0A2E5013041000080DFD4E41C410000C004F7013041000000A984E41C410000E0E22A023041000000B327E41C410000400F520230410000008DD9E31C41000060B3780230410000009845E31C410000803CA6023041000080E3E9E21C410000605FB80230410000001512
60701       GOLFITO                   607          5514             5754             3341              473                  0                   0x000000000104081300000000804EA37E21410000C04E55682D4100000083F87E2141000000A183682D4100000092177F21410000003FC9682D41000080F2F07E21410000407BFF682D41000000C9F87E21410000802145692D41000000082F7F21410000007F73692D41000080865D7F2141000080219A692D41000000A85D
60801       SAN VITO                  608          7255             7584             4347              835                  4                   0x000000000104E8040000000000D57BB4224100000068949E2D410000802B41B522410000C08AA79E2D410000803EB1B522410000008E9F9E2D41000000370FB6224100000060A19E2D410000803E67B62241000040C5C69E2D41000040A4E2B622410000C05BEF9E2D410000809CE6B622410000C08C2C9F2D410000C095F9
61001       CORREDOR                  610          8512             8737             4936              437                  1                   0x000000000104C50A0000000000AB5C902241000080D898E42C4100004049A09022410000803FA0E42C410000407DEB902241000080B5D4E42C4100004057FE9022410000C0BF01E52C41000080772B9122410000807A23E52C41000040483E9122410000C0FB39E52C410000C017429122410000C0C75BE52C41000000582F
70101       LIMON                     701          28710            32367            18060             1823                 13                  0x0000000001048C0400000000C0459A5922410000A07B66E7304100004041A6592241000000CE68E73041000020E9B05922410000901F6DE730410000C0E9B45922410000207271E730410000C0E9B65922410000A01B73E73041000040F5B45922410000A06884E7304100000065945922410000E00F95E730410000E0D46F
70201       GUAPILES                  702          17536            18921            10787             1244                 2                   0x000000000104F301000000008073F5BD1F410000E04577033141000000BEA1BE1F410000C0D5830331410000800430BF1F410000C07F8C0331410000803D34C01F410000806CC5033141000080130FC11F410000005DDD033141000080E6E9C11F41000060B1F20331410000803FD9C21F41000040580E043141000080DF72
70301       SIQUIRRES                 703          15868            15766            9078              972                  10                  0x0000000001044B0D0000000080F8BE5D21410000C061615E314100008087595E214100004063EC5E3141000080C1985E21410000C005305F314100008058785E21410000C0C5175F314100008030525E214100008064FE5E314100008090235E2141000000E7E25E3141000000B3F05D21410000004CC55E3141000080C2CE
70502       BATAN                     705          8449             8094             4647              601                  0                   0x000000000104310800000000C0F4A1C821410000E04EC02731410000402A79CE214100002035B82A31410000C04CC7CD214100004031322B31410000C03EDECC21410000E06FBC2B31410000008216CC2141000040233D2C3141000000028FCB2141000080CCA42C3141000000D409CB214100000013F12C3141000000A071

(55 row(s) affected)

Table 'Worktable'. Scan count 0, logical reads 0, physical reads 0, read-ahead reads 0, lob logical reads 0, lob physical reads 0, lob read-ahead reads 0.
Table 'Distrito'. Scan count 1, logical reads 1740, physical reads 3, read-ahead reads 152, lob logical reads 3777, lob physical reads 84, lob read-ahead reads 0.
Table 'extended_index_1060198827_384000'. Scan count 232, logical reads 467, physical reads 5, read-ahead reads 0, lob logical reads 0, lob physical reads 0, lob read-ahead reads 0.
Table 'Estacion_Bomberos'. Scan count 1, logical reads 3, physical reads 1, read-ahead reads 0, lob logical reads 0, lob physical reads 0, lob read-ahead reads 0.


(1 row(s) affected)

 SQL Server Execution Times:
   CPU time = 187 ms,  elapsed time = 879 ms.
SQL Server parse and compile time: 
   CPU time = 0 ms, elapsed time = 0 ms.

 SQL Server Execution Times:
   CPU time = 0 ms,  elapsed time = 0 ms.
